:040000000DEF00F010
:04000800A7EF85F0E9
:06001800FF00EAEF85F095
:10FED0000050686F746F7265736973746F72207409
:10FEE0007269676765722073657420283E3D20251E
:10FEF00075292E204D6F746F722077696C6C20739A
:10FF00007461727420616E64207374617920636F10
:10FF10006E74726F6C6C65642062792074686973AA
:10FF20002E0D0A0054656D706572617475726520DE
:10FF3000747269676765722073657420283E202596
:10FF400075292E204D6F746F722077696C6C207349
:10FF50007461727420616E64207374617920636FC0
:10FF60006E74726F6C6C656420627920746869735A
:10FF70002E0D0A004D6F746F7220446972656374B0
:10FF8000696F6E3A2025732C2050574D20466F72B2
:10FF9000776172643A2025752C2050574D205265A8
:10FFA00076657273653A2025750D0A004D6F746F82
:10FFB0007220646972656374696F6E206368616E34
:10FFC00067656420746F3A2025730D0A0050484F0E
:10FFD000544F3A2025750D0A0054454D503A2025BE
:10FFE000750D0A00506F743A2025750D0A00466F92
:0FFFF00072776172640052657665727365000006
:020000040001F9
:1000000027EC86F04F6A426A476A486A000E09EC9C
:1000100087F00DEC87F07CEC86F00009D8B413EF84
:1000200080F015EF80F00BEF80F087EC86F001C5D3
:1000300049F502C54AF5E40E266EFF0E276E49C546
:1000400028F54AC529F514EC86F0090E316E1E0E0E
:10005000306EE40EE82EFED7302EFCD7312EFAD7C4
:1000600000D0010E09EC87F00DEC87F07CEC86F0F7
:100070000009D8B43EEF80F040EF80F036EF80F01A
:1000800087EC86F001C532F502C533F5CD0E266E3C
:10009000FF0E276E32C528F533C529F514EC86F01E
:1000A000090E316E1E0E306EE40EE82EFED7302E95
:1000B000FCD7312EFAD700D0020E09EC87F00DECF8
:1000C00087F07CEC86F00009D8B469EF80F06BEF24
:1000D00080F061EF80F087EC86F001C534F502C551
:1000E00035F5D90E266EFF0E276E34C528F535C5B9
:1000F00029F514EC86F0090E316E1E0E306EE40EFA
:10010000E82EFED7302EFCD7312EFAD700D0CFA85C
:100110008CEF80F08FEF80F0010E90EF80F0000EFA
:10012000456E45C546F54204D8A499EF80F09BEF93
:1001300080F0CDEF80F04650D8A4A1EF80F0A3EF7F
:1001400080F0CDEF80F0010E4F1A4F50D8B4ABEFD6
:1001500080F0ADEF80F0B3EF80F0F60E3E6EFF0E54
:100160003F6EB7EF80F0EE0E3E6EFF0E3F6EAC0EB0
:10017000266EFF0E276E3EC528F53FC529F514EC07
:1001800086F0110E316E3C0E306ECB0EE82EFED78F
:10019000302EFCD7312EFAD7000046C542F5455027
:1001A000D8B4D5EF80F0D7EF80F018EF81F04F5042
:1001B000D8B4DDEF80F0DFEF80F0E9EF80F0000EE3
:1001C000366E000E376E000E386E000E396EF1EF8F
:1001D00080F0FF0E366EFF0E376E000E386E000E8A
:1001E000396E36C54BF537C54CF54F04D8B4FBEF27
:1001F00080F0FDEF80F007EF81F0000E3A6E000E08
:100200003B6E000E3C6E000E3D6E0FEF81F0FF0E58
:100210003A6EFF0E3B6E000E3C6E000E3D6E3AC510
:100220004DF53BC54EF57F0E446E43686AEF81F095
:100230004750D8B41EEF81F020EF81F02CEF81F011
:100240007F0E4C6E4B684E6A000E4D6E4F6A7F0EED
:10025000446E43686AEF81F04850D8B432EF81F0C1
:1002600034EF81F041EF81F04C6A000E4B6E7F0E4F
:100270004E6E4D68010E4F6E7F0E446E43686AEFFE
:1002800081F04C6A000E4B6E4E6A000E4D6E0F0EE2
:10029000446E43684904080E4A58D8B052EF81F0C2
:1002A00054EF81F056EF81F06AEF81F07F0E446EDB
:1002B00043684904080E4A58D8A061EF81F063EF03
:1002C00081F06AEF81F07F0E4C6E4B684E6A000E33
:1002D0004D6E4F6A4F50D8B470EF81F072EF81F0DD
:1002E00078EF81F0F60E406EFF0E416E7CEF81F0EC
:1002F000EE0E406EFF0E416E740E266EFF0E276EE0
:1003000040C528F541C529F54BC52AF54CC52BF547
:100310004DC52CF54EC52DF514EC86F043C501F501
:1003200044C502F500EC87F04BC501F54CC502F55C
:10033000FBEC86F04DC501F54EC502F5F6EC86F0F6
:1003400014EC87F012EC87F010EC87F0D00E306ED2
:10035000CA0EE82EFED7302EFCD706EF80F00DEF48
:1003600000F00EC5D9F40FC5DAF4DEC4F6F4DDC42E
:10037000F7F4000EF86E0800F550250AD8A4C3EF74
:1003800081F0C5EF81F045EF83F00EC5D9F40FC5BC
:10039000DAF4DE2A000EDD2205018D6B000E8C6F73
:1003A0008CC55EF58E698F690EC5D9F40FC5DAF478
:1003B000DEC417F5DDC418F517C5F6F418C5F7F453
:1003C000000EF86E0800F550750AD8A4EAEF81F027
:1003D000ECEF81F070EF82F010C5D9F411C5DAF4BA
:1003E000DFC412F5020EDE26DFC413F5000EDD2297
:1003F00012C5D9F413C5DAF4DEC419F5DDC41AF553
:10040000010E1724126E000E1820136E0EC5D9F4BB
:100410000FC5DAF412C5DEF413C5DDF462EF82F025
:10042000200E1D6E1D06600E1D24D96EDA6A050EA3
:10043000DA2219C501F51AC502F5046A0A0E036E1F
:100440001CEC85F00150300FDF6E19C501F51AC59F
:1004500002F5046A0A0E036E15EC84F001C519F565
:1004600002C51AF519501A10D8B439EF82F03BEFD3
:1004700082F057EF82F01D50D8A441EF82F043EF95
:1004800082F012EF82F057EF82F0600E1D24D96ED9
:10049000DA6A050EDA22DF50126E1250036E046A19
:1004A0000CC505F50DC506F55CEC83F01D2A200E84
:1004B0001D18D8A45EEF82F060EF82F045EF82F065
:1004C0005BEF83F017C5F6F418C5F7F4000EF86E6D
:1004D0000800F550750AD8B410EF82F070EF82F082
:1004E000146A0EC5D9F40FC5DAF4DEC4F6F4DDC41F
:1004F000F7F4000EF86E0800F550730AD8A483EFE5
:1005000082F085EF82F090EF82F00EC5D9F40FC52E
:10051000DAF4DE2A000EDD22010E146EE6EF82F020
:100520000EC5D9F40FC5DAF4DEC4F6F4DDC4F7F471
:10053000000EF86E0800F5506C0AD8A4A2EF82F005
:10054000A4EF82F0E6EF82F00EC5D9F40FC5DAF41D
:10055000DEC412F5DDC413F5010E1226000E1322BF
:1005600012C5F6F413C5F7F4000EF86E0800F55046
:100570006C0AD8A4BEEF82F0C0EF82F0E6EF82F002
:100580000EC5D9F40FC5DAF4DEC412F5DDC413F5D7
:10059000020E1226000E132212C5F6F413C5F7F44C
:1005A000000EF86E0800F550730AD8A4DAEF82F056
:1005B000DCEF82F0E6EF82F0030E0EC5D9F40FC532
:1005C000DAF4DE26000EDD228CEF82F01450D8B46F
:1005D000ECEF82F0EEEF82F03CEF83F010C5D9F43F
:1005E00011C5DAF4DFC412F5020EDE26DFC413F5FE
:1005F000000EDD2212C5D9F413C5DAF4DEC415F5F8
:10060000DDC416F521EF83F015C5F6F416C5F7F431
:10061000000EF86E250EF76403D00800F55005D0E3
:10062000F6C4E9F4F7C4EAF4EF50126E1250036E08
:10063000046A0CC505F50DC506F55CEC83F0154A9A
:10064000162A15C5F6F416C5F7F4000EF86E250E39
:10065000F76403D00800F55005D0F6C4E9F4F7C4F8
:10066000EAF4EF500009D8A438EF83F03AEF83F0B2
:1006700004EF83F05BEF83F00EC5D9F40FC5DAF415
:10068000DE2A000EDD225BEF83F00EC5D9F40FC524
:10069000DAF4DEC4F6F4DDC4F7F4000EF86E0800F8
:1006A000F550036E046A0CC505F50DC506F55CEC46
:1006B00083F03CEF83F0120005500610D8B463EFCE
:1006C00083F065EF83F06EEF83F005500610D8A439
:1006D0006CEF83F06EEF83F073EF83F003506DECFB
:1006E00086F0C0EF83F020EE09F00550D9260650C1
:1006F000DA22DE50DE10D8B480EF83F082EF83F090
:100700009DEF83F020EE09F00550D9260650DA223D
:1007100010EE02F00550E1260650E222DE50E65CC3
:10072000E650800A0B6EDE50800A0B58D8B09BEF63
:1007300083F09DEF83F0C0EF83F020EE02F00550D0
:10074000D9260650DA22DEC407F5DDC408F505C552
:10075000D9F406C5DAF4DEC409F5DDC40AF507509C
:100760000924D96E08500A20DA6E03C5DFF420EEA2
:1007700002F00550D9260650DA22DE2A000EDD22CC
:100780001200BE6ABF6AC06AC16AC26AC36A040153
:10079000026B0A6B126B1A6B226B2A6BC668760EA1
:1007A000C76E6F0EC86EF70EC96E0F0ECA6EFE0EC4
:1007B000CB6E0069EF0E086FEF0E106F120E186F00
:1007C000070E206FFC0E286F016B096B116B196B04
:1007D000216B296B03690B6913691B69070E236F72
:1007E0002B6904690C6914691C690F0E246F2C694C
:1007F0000201896B886B876B866B290E726F200EE6
:10080000296F1C0E0C6F1A0E096F180E186F040159
:10081000056B066B076B0D6B0E6B0F6B156B166B19
:10082000176B256B266B276B1200066A000E056E90
:1008300003500410D8B41FEF84F021EF84F049EF87
:1008400084F0010E076E29EF84F0D8900336043649
:10085000072A04AE2EEF84F030EF84F025EF84F009
:10086000D890053606360350015C04500258D8A0D3
:100870003CEF84F03EEF84F043EF84F00350015EE0
:100880000450025A0580D89004320332072E30EF0C
:1008900084F005C501F506C502F512000201A26B40
:1008A000A46BA56BA66BA76BA86BA96BAA6BB00E0C
:1008B000AB6F800EAC6F080EAD6F820EAE6F060E82
:1008C000AF6F2E0EB06FB16B800EB26FB36B000EB8
:1008D000016E000E026E000E036E5CEC86F0000EE0
:1008E000016E000E026E000E036E4BEC86F0000EE1
:1008F000016E000E026E000E036E3AEC86F05D6A29
:10090000000E5C6E12007E6A020E7F6E806A816845
:10091000F90E826E836A846A856A866A886A896A41
:100920007D0E8A6E8B6A7D0E8C6EB59CB59E859011
:100930008592A59EA59C000E016E000E026E000E13
:10094000036EA3EC86F0000E016E000E026E000E28
:10095000036E9CEC86F0000E016E000E026E000E1F
:10096000036EAAEC86F0800E876E12006F6A020E8C
:10097000706E716A7268F90E736E746A756A766A5F
:10098000776A796A7A6A7D0E7B6E7C6A7D0E7D6EEF
:10099000B39CB39E76907692A39EA39C000E016EAC
:1009A000000E026E000E036EB8EC86F0000E016EB3
:1009B000000E026E000E036EB1EC86F0000E016EAA
:1009C000000E026E000E036EBFEC86F0800E786E95
:1009D0001200606A020E616E626A6368F90E646EEC
:1009E000656A666A676A686A6A6A6B6A7D0E6C6EB7
:1009F0006D6A7D0E6E6EB29CB29E67906792A29EEB
:100A0000A29C000E016E000E026E000E036ECDEC75
:100A100086F0000E016E000E026E000E036EC6EC34
:100A200086F0000E016E000E026E000E036ED4EC16
:100A300086F0800E696E120003500410D8B423EFC4
:100A400085F025EF85F049EF85F0010E056E2DEF5D
:100A500085F0D89003360436052A04AE32EF85F0CF
:100A600034EF85F029EF85F00350015C0450025803
:100A7000D8A03DEF85F03FEF85F043EF85F00350C0
:100A8000015E0450025AD89004320332052E34EF2E
:100A900085F001C501F502C502F512000301F39FBF
:100AA000D96BDA6BDB6BDC6BDF6BE06BE56BE76BF9
:100AB000EC6BEE6BEF6BD86BF06BF16BF26BF46B76
:100AC000180EF56F100EF66FF76BF86B1F0EFA6FBE
:100AD000F96B000E0501896F000E8A6F000E8B6F97
:100AE000000E866F000E876F000E886F5F6AAF94EE
:100AF0009F94B090A090840E0301F36F120020C564
:100B000024F521C525F593EF85F01EC50CF51FC50D
:100B10000DF5240E0E6E050E0F6E22C510F523C5C1
:100B200011F5B1EC81F024C5F6F425C5F7F4000EFB
:100B3000F86E0800F5500009D8A4A1EF85F0A3EFE6
:100B400085F085EF85F01F6A000E1E6E12009FA4CF
:100B5000ACEF85F0AEEF85F0B9EF85F0AFA4B3EF61
:100B600085F0B5EF85F0B9EF85F018EC87F0C9EFA7
:100B700085F0A0A0BEEF85F0C0EF85F0C9EF85F04D
:100B8000B0A0C5EF85F0C7EF85F0C9EF85F016EC92
:100B900087F01100D69AAF90D680000E016E000E3D
:100BA000026E000E036EE9EC86F0B490D682000E61
:100BB000016E000E026E000E036EE2EC86F0B8903D
:100BC000D684000E016E000E026E000E036EDBEC8A
:100BD00086F0120001EE60F1300EEE6AE806FDE1EB
:100BE00001EE50F1100EEE6AE806FDE10401080E78
:100BF0005D6F000E5E6F000E5F6F000100EF80F012
:100C0000016A0201B0AB07EF86F009EF86F012EF40
:100C100086F0ABAB0EEF86F010EF86F012EF86F0A9
:100C2000010E016E01501200280E2E6E050E2F6E61
:100C3000000E1E6E000E1F6E26C520F527C521F57D
:100C40002E0E226E050E236E7FEC85F0120092ECC4
:100C500086F0C1EC83F04EEC85F0F0EC86F0E9EC28
:100C600084F0B6EC84F083EC84F04EEC84F0CAECB3
:100C700085F01200015002100310D8B442EF86F044
:100C800044EF86F04AEF86F001C580F502C581F594
:100C900003C582F51200015002100310D8B453EFBF
:100CA00086F055EF86F05BEF86F001C583F502C54F
:100CB00084F503C585F51200015002100310D8B465
:100CC00064EF86F066EF86F06CEF86F001C550F5B4
:100CD00002C551F503C552F51200026E00EC86F014
:100CE0000009D8B476EF86F078EF86F06EEF86F0E4
:100CF000025005EC87F012000301F3A182EF86F0A9
:100D000085EF86F0010E86EF86F0000E12000301DB
:100D1000EB51046E036AEA510324016E000E0420B5
:100D2000026E1200600E0001AD6FAF6BB36B080E68
:100D3000B16FB06BAC6B120001C59CF502C59DF59F
:100D400003C59EF5120001C59FF502C5A0F503C5B8
:100D5000A1F5120001C599F502C59AF503C59BF5E9
:100D6000120001C593F502C594F503C595F512006F
:100D700001C596F502C597F503C598F5120001C5A2
:100D800090F502C591F503C592F5120001C5A5F5D0
:100D900002C5A6F503C5A7F5120001C5A8F502C551
:100DA000A9F503C5AAF5120001C5A2F502C5A3F570
:100DB00003C5A4F5120001C553F502C554F503C5DA
:100DC00055F5120001C556F502C557F503C558F58E
:100DD000120001C559F502C55AF503C55BF51200AD
:100DE000900E00017F6F330E7D6F120001C589F4F4
:100DF00002508A6E120001C57AF402507B6E120016
:100E000001C56BF402506C6E1200016E01C5A3F2B5
:100E10001200016E01C5ECF312000301F381120010
:100E2000878412007884120069841200B090120046
:040E3000AF94120069
:020000040030CA
:080000008FFFF7FF9FFFFFFFD8
:01000900FFF7
:00000001FF
